{
  "_format": "hh-sol-artifact-1",
  "contractName": "DrugVerification",
  "sourceName": "contracts/DrugVerification.sol",
  "abi": [
    {
      "anonymous": false,
      "inputs": [
        {
          "indexed": false,
          "internalType": "address",
          "name": "account",
          "type": "address"
        },
        {
          "indexed": false,
          "internalType": "string",
          "name": "role",
          "type": "string"
        }
      ],
      "name": "Authorized",
      "type": "event"
    },
    {
      "anonymous": false,
      "inputs": [
        {
          "indexed": false,
          "internalType": "string",
          "name": "batchNumber",
          "type": "string"
        },
        {
          "indexed": false,
          "internalType": "address",
          "name": "recalledBy",
          "type": "address"
        }
      ],
      "name": "BatchRecalled",
      "type": "event"
    },
    {
      "anonymous": false,
      "inputs": [
        {
          "indexed": false,
          "internalType": "string",
          "name": "batchNumber",
          "type": "string"
        },
        {
          "indexed": false,
          "internalType": "string",
          "name": "drugNdc",
          "type": "string"
        },
        {
          "indexed": false,
          "internalType": "address",
          "name": "creator",
          "type": "address"
        }
      ],
      "name": "BatchRegistered",
      "type": "event"
    },
    {
      "anonymous": false,
      "inputs": [
        {
          "indexed": false,
          "internalType": "string",
          "name": "batchNumber",
          "type": "string"
        },
        {
          "indexed": false,
          "internalType": "enum DrugVerification.BatchStatus",
          "name": "newStatus",
          "type": "uint8"
        }
      ],
      "name": "BatchStatusUpdated",
      "type": "event"
    },
    {
      "anonymous": false,
      "inputs": [
        {
          "indexed": false,
          "internalType": "string",
          "name": "batchNumber",
          "type": "string"
        },
        {
          "indexed": false,
          "internalType": "address",
          "name": "verifier",
          "type": "address"
        }
      ],
      "name": "BatchVerified",
      "type": "event"
    },
    {
      "anonymous": false,
      "inputs": [
        {
          "indexed": false,
          "internalType": "string",
          "name": "ndc",
          "type": "string"
        },
        {
          "indexed": false,
          "internalType": "string",
          "name": "name",
          "type": "string"
        },
        {
          "indexed": false,
          "internalType": "address",
          "name": "manufacturer",
          "type": "address"
        }
      ],
      "name": "DrugRegistered",
      "type": "event"
    },
    {
      "anonymous": false,
      "inputs": [
        {
          "indexed": false,
          "internalType": "string",
          "name": "batchNumber",
          "type": "string"
        },
        {
          "indexed": false,
          "internalType": "address",
          "name": "from",
          "type": "address"
        },
        {
          "indexed": false,
          "internalType": "address",
          "name": "to",
          "type": "address"
        },
        {
          "indexed": false,
          "internalType": "enum DrugVerification.TransactionType",
          "name": "txType",
          "type": "uint8"
        }
      ],
      "name": "TransactionRecorded",
      "type": "event"
    },
    {
      "inputs": [
        {
          "internalType": "address",
          "name": "account",
          "type": "address"
        }
      ],
      "name": "authorizeDistributor",
      "outputs": [],
      "stateMutability": "nonpayable",
      "type": "function"
    },
    {
      "inputs": [
        {
          "internalType": "address",
          "name": "account",
          "type": "address"
        }
      ],
      "name": "authorizeManufacturer",
      "outputs": [],
      "stateMutability": "nonpayable",
      "type": "function"
    },
    {
      "inputs": [
        {
          "internalType": "address",
          "name": "account",
          "type": "address"
        }
      ],
      "name": "authorizePharmacy",
      "outputs": [],
      "stateMutability": "nonpayable",
      "type": "function"
    },
    {
      "inputs": [
        {
          "internalType": "address",
          "name": "account",
          "type": "address"
        }
      ],
      "name": "authorizeRegulator",
      "outputs": [],
      "stateMutability": "nonpayable",
      "type": "function"
    },
    {
      "inputs": [
        {
          "internalType": "address",
          "name": "",
          "type": "address"
        }
      ],
      "name": "authorizedDistributors",
      "outputs": [
        {
          "internalType": "bool",
          "name": "",
          "type": "bool"
        }
      ],
      "stateMutability": "view",
      "type": "function"
    },
    {
      "inputs": [
        {
          "internalType": "address",
          "name": "",
          "type": "address"
        }
      ],
      "name": "authorizedManufacturers",
      "outputs": [
        {
          "internalType": "bool",
          "name": "",
          "type": "bool"
        }
      ],
      "stateMutability": "view",
      "type": "function"
    },
    {
      "inputs": [
        {
          "internalType": "address",
          "name": "",
          "type": "address"
        }
      ],
      "name": "authorizedPharmacies",
      "outputs": [
        {
          "internalType": "bool",
          "name": "",
          "type": "bool"
        }
      ],
      "stateMutability": "view",
      "type": "function"
    },
    {
      "inputs": [
        {
          "internalType": "address",
          "name": "",
          "type": "address"
        }
      ],
      "name": "authorizedRegulators",
      "outputs": [
        {
          "internalType": "bool",
          "name": "",
          "type": "bool"
        }
      ],
      "stateMutability": "view",
      "type": "function"
    },
    {
      "inputs": [
        {
          "internalType": "string",
          "name": "",
          "type": "string"
        },
        {
          "internalType": "uint256",
          "name": "",
          "type": "uint256"
        }
      ],
      "name": "batchTransactions",
      "outputs": [
        {
          "internalType": "string",
          "name": "batchNumber",
          "type": "string"
        },
        {
          "internalType": "address",
          "name": "from",
          "type": "address"
        },
        {
          "internalType": "address",
          "name": "to",
          "type": "address"
        },
        {
          "internalType": "enum DrugVerification.TransactionType",
          "name": "txType",
          "type": "uint8"
        },
        {
          "internalType": "uint256",
          "name": "timestamp",
          "type": "uint256"
        },
        {
          "internalType": "string",
          "name": "ipfsHash",
          "type": "string"
        }
      ],
      "stateMutability": "view",
      "type": "function"
    },
    {
      "inputs": [
        {
          "internalType": "string",
          "name": "",
          "type": "string"
        }
      ],
      "name": "batches",
      "outputs": [
        {
          "internalType": "string",
          "name": "batchNumber",
          "type": "string"
        },
        {
          "internalType": "string",
          "name": "drugNdc",
          "type": "string"
        },
        {
          "internalType": "uint256",
          "name": "manufactureDate",
          "type": "uint256"
        },
        {
          "internalType": "uint256",
          "name": "expiryDate",
          "type": "uint256"
        },
        {
          "internalType": "address",
          "name": "creator",
          "type": "address"
        },
        {
          "internalType": "enum DrugVerification.BatchStatus",
          "name": "status",
          "type": "uint8"
        },
        {
          "internalType": "bool",
          "name": "exists",
          "type": "bool"
        },
        {
          "internalType": "uint256",
          "name": "createdAt",
          "type": "uint256"
        },
        {
          "internalType": "uint256",
          "name": "updatedAt",
          "type": "uint256"
        },
        {
          "internalType": "string",
          "name": "ipfsHash",
          "type": "string"
        }
      ],
      "stateMutability": "view",
      "type": "function"
    },
    {
      "inputs": [
        {
          "internalType": "string",
          "name": "batchNumber",
          "type": "string"
        }
      ],
      "name": "dispenseBatch",
      "outputs": [],
      "stateMutability": "nonpayable",
      "type": "function"
    },
    {
      "inputs": [
        {
          "internalType": "string",
          "name": "",
          "type": "string"
        }
      ],
      "name": "drugs",
      "outputs": [
        {
          "internalType": "string",
          "name": "name",
          "type": "string"
        },
        {
          "internalType": "string",
          "name": "ndc",
          "type": "string"
        },
        {
          "internalType": "address",
          "name": "manufacturer",
          "type": "address"
        },
        {
          "internalType": "string",
          "name": "description",
          "type": "string"
        },
        {
          "internalType": "bool",
          "name": "exists",
          "type": "bool"
        },
        {
          "internalType": "uint256",
          "name": "createdAt",
          "type": "uint256"
        },
        {
          "internalType": "uint256",
          "name": "updatedAt",
          "type": "uint256"
        }
      ],
      "stateMutability": "view",
      "type": "function"
    },
    {
      "inputs": [
        {
          "internalType": "string",
          "name": "batchNumber",
          "type": "string"
        }
      ],
      "name": "getBatchStatus",
      "outputs": [
        {
          "internalType": "enum DrugVerification.BatchStatus",
          "name": "",
          "type": "uint8"
        }
      ],
      "stateMutability": "view",
      "type": "function"
    },
    {
      "inputs": [
        {
          "internalType": "string",
          "name": "batchNumber",
          "type": "string"
        }
      ],
      "name": "getBatchTransactions",
      "outputs": [
        {
          "components": [
            {
              "internalType": "string",
              "name": "batchNumber",
              "type": "string"
            },
            {
              "internalType": "address",
              "name": "from",
              "type": "address"
            },
            {
              "internalType": "address",
              "name": "to",
              "type": "address"
            },
            {
              "internalType": "enum DrugVerification.TransactionType",
              "name": "txType",
              "type": "uint8"
            },
            {
              "internalType": "uint256",
              "name": "timestamp",
              "type": "uint256"
            },
            {
              "internalType": "string",
              "name": "ipfsHash",
              "type": "string"
            }
          ],
          "internalType": "struct DrugVerification.Transaction[]",
          "name": "",
          "type": "tuple[]"
        }
      ],
      "stateMutability": "view",
      "type": "function"
    },
    {
      "inputs": [
        {
          "internalType": "string",
          "name": "batchNumber",
          "type": "string"
        }
      ],
      "name": "isBatchVerified",
      "outputs": [
        {
          "internalType": "bool",
          "name": "",
          "type": "bool"
        }
      ],
      "stateMutability": "view",
      "type": "function"
    },
    {
      "inputs": [
        {
          "internalType": "string",
          "name": "batchNumber",
          "type": "string"
        }
      ],
      "name": "recallBatch",
      "outputs": [],
      "stateMutability": "nonpayable",
      "type": "function"
    },
    {
      "inputs": [
        {
          "internalType": "string",
          "name": "batchNumber",
          "type": "string"
        }
      ],
      "name": "receiveBatch",
      "outputs": [],
      "stateMutability": "nonpayable",
      "type": "function"
    },
    {
      "inputs": [
        {
          "internalType": "string",
          "name": "batchNumber",
          "type": "string"
        },
        {
          "internalType": "string",
          "name": "drugNdc",
          "type": "string"
        },
        {
          "internalType": "uint256",
          "name": "manufactureDate",
          "type": "uint256"
        },
        {
          "internalType": "uint256",
          "name": "expiryDate",
          "type": "uint256"
        },
        {
          "internalType": "string",
          "name": "ipfsHash",
          "type": "string"
        }
      ],
      "name": "registerBatch",
      "outputs": [],
      "stateMutability": "nonpayable",
      "type": "function"
    },
    {
      "inputs": [
        {
          "internalType": "string",
          "name": "name",
          "type": "string"
        },
        {
          "internalType": "string",
          "name": "ndc",
          "type": "string"
        },
        {
          "internalType": "string",
          "name": "description",
          "type": "string"
        }
      ],
      "name": "registerDrug",
      "outputs": [],
      "stateMutability": "nonpayable",
      "type": "function"
    },
    {
      "inputs": [
        {
          "internalType": "string",
          "name": "batchNumber",
          "type": "string"
        },
        {
          "internalType": "address",
          "name": "to",
          "type": "address"
        }
      ],
      "name": "shipBatch",
      "outputs": [],
      "stateMutability": "nonpayable",
      "type": "function"
    },
    {
      "inputs": [
        {
          "internalType": "string",
          "name": "batchNumber",
          "type": "string"
        }
      ],
      "name": "verifyBatch",
      "outputs": [],
      "stateMutability": "nonpayable",
      "type": "function"
    }
  ],
  "bytecode": "0x6080604052348015600f57600080fd5b50613fb58061001f6000396000f3fe608060405234801561001057600080fd5b50600436106101375760003560e01c806366708f33116100b8578063b009493d1161007c578063b009493d1461038e578063d485affc146103c4578063e906dc42146103e0578063ec631d9e146103fc578063ee6a6d0e14610418578063fb4b2caa1461044857610137565b806366708f33146102a45780637794fff0146102d95780637ef1446a146103095780638d1696c9146103425780639d45cae51461037257610137565b806349eed3ff116100ff57806349eed3ff146102045780634d27c90414610220578063529691871461023c5780635815913c146102585780635cdfd41d1461028857610137565b8063089e1b391461013c5780631f4baa6114610158578063234fb7cc1461018857806324b04245146101a45780634048e6d0146101d4575b600080fd5b61015660048036038101906101519190612b75565b610464565b005b610172600480360381019061016d9190612b75565b6104f6565b60405161017f9190612bbd565b60405180910390f35b6101a2600480360381019061019d9190612d1e565b610516565b005b6101be60048036038101906101b99190612b75565b61077b565b6040516101cb9190612bbd565b60405180910390f35b6101ee60048036038101906101e99190612dc5565b61079b565b6040516101fb9190612bbd565b60405180910390f35b61021e60048036038101906102199190612e44565b610868565b005b61023a60048036038101906102359190612f13565b610bce565b005b61025660048036038101906102519190612dc5565b611000565b005b610272600480360381019061026d9190612b75565b611274565b60405161027f9190612bbd565b60405180910390f35b6102a2600480360381019061029d9190612dc5565b611294565b005b6102be60048036038101906102b99190612f6f565b6116c6565b6040516102d0969594939291906130df565b60405180910390f35b6102f360048036038101906102ee9190612dc5565b611892565b6040516103009190613317565b60405180910390f35b610323600480360381019061031e9190612dc5565b611b92565b6040516103399a99989796959493929190613381565b60405180910390f35b61035c60048036038101906103579190612b75565b611dce565b6040516103699190612bbd565b60405180910390f35b61038c60048036038101906103879190612b75565b611dee565b005b6103a860048036038101906103a39190612dc5565b611e80565b6040516103bb9796959493929190613432565b60405180910390f35b6103de60048036038101906103d99190612b75565b61209d565b005b6103fa60048036038101906103f59190612dc5565b61212f565b005b61041660048036038101906104119190612b75565b61259a565b005b610432600480360381019061042d9190612dc5565b61262c565b60405161043f91906134b6565b60405180910390f35b610462600480360381019061045d9190612dc5565b6126d2565b005b6001600360008373ffffffffffffffffffffffffffffffffffffffff1673ffffffffffffffffffffffffffffffffffffffff16815260200190815260200160002060006101000a81548160ff0219169083151502179055507f571925c699f9072cec76b6c6c000571cc8d0bb5c47e5819202e2e9496c6508b5816040516104eb919061351d565b60405180910390a150565b60056020528060005260406000206000915054906101000a900460ff1681565b600360003373ffffffffffffffffffffffffffffffffffffffff1673ffffffffffffffffffffffffffffffffffffffff16815260200190815260200160002060009054906101000a900460ff166105a2576040517f08c379a000000000000000000000000000000000000000000000000000000000815260040161059990613597565b60405180910390fd5b6000826040516105b291906135f3565b908152602001604051809103902060040160009054906101000a900460ff1615610611576040517f08c379a000000000000000000000000000000000000000000000000000000000815260040161060890613656565b60405180910390fd5b6040518060e001604052808481526020018381526020013373ffffffffffffffffffffffffffffffffffffffff1681526020018281526020016001151581526020014281526020014281525060008360405161066d91906135f3565b908152602001604051809103902060008201518160000190816106909190613882565b5060208201518160010190816106a69190613882565b5060408201518160020160006101000a81548173ffffffffffffffffffffffffffffffffffffffff021916908373ffffffffffffffffffffffffffffffffffffffff16021790555060608201518160030190816107039190613882565b5060808201518160040160006101000a81548160ff02191690831515021790555060a0820151816005015560c082015181600601559050507ff218f27eb1d5fb025991628b0f18a043d0c3b678a9d2de4d7baee375663ddcd682843360405161076e93929190613954565b60405180910390a1505050565b60036020528060005260406000206000915054906101000a900460ff1681565b60006001826040516107ad91906135f3565b908152602001604051809103902060040160159054906101000a900460ff1661080b576040517f08c379a0000000000000000000000000000000000000000000000000000000008152600401610802906139e5565b60405180910390fd5b6003600581111561081f5761081e613059565b5b60018360405161082f91906135f3565b908152602001604051809103902060040160149054906101000a900460ff1660058111156108605761085f613059565b5b149050919050565b8360008160405161087991906135f3565b908152602001604051809103902060040160009054906101000a900460ff166108d7576040517f08c379a00000000000000000000000000000000000000000000000000000000081526004016108ce90613a51565b60405180910390fd5b3373ffffffffffffffffffffffffffffffffffffffff166000826040516108fe91906135f3565b908152602001604051809103902060020160009054906101000a900473ffffffffffffffffffffffffffffffffffffffff1673ffffffffffffffffffffffffffffffffffffffff1614610986576040517f08c379a000000000000000000000000000000000000000000000000000000000815260040161097d90613abd565b60405180910390fd5b60018660405161099691906135f3565b908152602001604051809103902060040160159054906101000a900460ff16156109f5576040517f08c379a00000000000000000000000000000000000000000000000000000000081526004016109ec90613b29565b60405180910390fd5b6040518061014001604052808781526020018681526020018581526020018481526020013373ffffffffffffffffffffffffffffffffffffffff16815260200160006005811115610a4957610a48613059565b5b815260200160011515815260200142815260200142815260200183815250600187604051610a7791906135f3565b90815260200160405180910390206000820151816000019081610a9a9190613882565b506020820151816001019081610ab09190613882565b50604082015181600201556060820151816003015560808201518160040160006101000a81548173ffffffffffffffffffffffffffffffffffffffff021916908373ffffffffffffffffffffffffffffffffffffffff16021790555060a08201518160040160146101000a81548160ff02191690836005811115610b3757610b36613059565b5b021790555060c08201518160040160156101000a81548160ff02191690831515021790555060e082015181600501556101008201518160060155610120820151816007019081610b879190613882565b509050507fe187ef62f610f162883fdada619504c09c0981be2dc09fbc1029e7a09db45a93868633604051610bbe93929190613954565b60405180910390a1505050505050565b600460003373ffffffffffffffffffffffffffffffffffffffff1673ffffffffffffffffffffffffffffffffffffffff16815260200190815260200160002060009054906101000a900460ff16610c5a576040517f08c379a0000000000000000000000000000000000000000000000000000000008152600401610c5190613b95565b60405180910390fd5b600182604051610c6a91906135f3565b908152602001604051809103902060040160159054906101000a900460ff16610cc8576040517f08c379a0000000000000000000000000000000000000000000000000000000008152600401610cbf906139e5565b60405180910390fd5b60006005811115610cdc57610cdb613059565b5b600183604051610cec91906135f3565b908152602001604051809103902060040160149054906101000a900460ff166005811115610d1d57610d1c613059565b5b14610d5d576040517f08c379a0000000000000000000000000000000000000000000000000000000008152600401610d5490613c01565b60405180910390fd5b60018083604051610d6e91906135f3565b908152602001604051809103902060040160146101000a81548160ff02191690836005811115610da157610da0613059565b5b021790555042600183604051610db791906135f3565b908152602001604051809103902060060181905550600282604051610ddc91906135f3565b90815260200160405180910390206040518060c001604052808481526020013373ffffffffffffffffffffffffffffffffffffffff1681526020018373ffffffffffffffffffffffffffffffffffffffff16815260200160016004811115610e4757610e46613059565b5b81526020014281526020016040518060200160405280600081525081525090806001815401808255809150506001900390600052602060002090600502016000909190919091506000820151816000019081610ea39190613882565b5060208201518160010160006101000a81548173ffffffffffffffffffffffffffffffffffffffff021916908373ffffffffffffffffffffffffffffffffffffffff16021790555060408201518160020160006101000a81548173ffffffffffffffffffffffffffffffffffffffff021916908373ffffffffffffffffffffffffffffffffffffffff16021790555060608201518160020160146101000a81548160ff02191690836004811115610f5d57610f5c613059565b5b02179055506080820151816003015560a0820151816004019081610f819190613882565b5050507f67299131a74fbf9a478b698dd6389d28f2a6c38727ebdafaedc6b1aeff674f11826001604051610fb6929190613c21565b60405180910390a17fa93fd66a907cf7d0b19bf8d29b0e97551ccceaa32a677b0146e15cccb7a1daa38233836001604051610ff49493929190613c51565b60405180910390a15050565b600660003373ffffffffffffffffffffffffffffffffffffffff1673ffffffffffffffffffffffffffffffffffffffff16815260200190815260200160002060009054906101000a900460ff1661108c576040517f08c379a000000000000000000000000000000000000000000000000000000000815260040161108390613ce9565b60405180910390fd5b60018160405161109c91906135f3565b908152602001604051809103902060040160159054906101000a900460ff166110fa576040517f08c379a00000000000000000000000000000000000000000000000000000000081526004016110f1906139e5565b60405180910390fd5b60058081111561110d5761110c613059565b5b60018260405161111d91906135f3565b908152602001604051809103902060040160149054906101000a900460ff16600581111561114e5761114d613059565b5b0361118e576040517f08c379a000000000000000000000000000000000000000000000000000000000815260040161118590613d55565b60405180910390fd5b60056001826040516111a091906135f3565b908152602001604051809103902060040160146101000a81548160ff021916908360058111156111d3576111d2613059565b5b0217905550426001826040516111e991906135f3565b9081526020016040518091039020600601819055507f423ae59b8825a6f0d6872201b0102d5bc3ff543cca72ddf16d2e4d698fc9898b813360405161122f929190613d75565b60405180910390a17f67299131a74fbf9a478b698dd6389d28f2a6c38727ebdafaedc6b1aeff674f11816005604051611269929190613c21565b60405180910390a150565b60066020528060005260406000206000915054906101000a900460ff1681565b600460003373ffffffffffffffffffffffffffffffffffffffff1673ffffffffffffffffffffffffffffffffffffffff16815260200190815260200160002060009054906101000a900460ff16611320576040517f08c379a000000000000000000000000000000000000000000000000000000000815260040161131790613b95565b60405180910390fd5b60018160405161133091906135f3565b908152602001604051809103902060040160159054906101000a900460ff1661138e576040517f08c379a0000000000000000000000000000000000000000000000000000000008152600401611385906139e5565b60405180910390fd5b600160058111156113a2576113a1613059565b5b6001826040516113b291906135f3565b908152602001604051809103902060040160149054906101000a900460ff1660058111156113e3576113e2613059565b5b14611423576040517f08c379a000000000000000000000000000000000000000000000000000000000815260040161141a90613c01565b60405180910390fd5b600260018260405161143591906135f3565b908152602001604051809103902060040160146101000a81548160ff0219169083600581111561146857611467613059565b5b02179055504260018260405161147e91906135f3565b9081526020016040518091039020600601819055506002816040516114a391906135f3565b90815260200160405180910390206040518060c001604052808381526020013373ffffffffffffffffffffffffffffffffffffffff1681526020013373ffffffffffffffffffffffffffffffffffffffff1681526020016002600481111561150e5761150d613059565b5b8152602001428152602001604051806020016040528060008152508152509080600181540180825580915050600190039060005260206000209060050201600090919091909150600082015181600001908161156a9190613882565b5060208201518160010160006101000a81548173ffffffffffffffffffffffffffffffffffffffff021916908373ffffffffffffffffffffffffffffffffffffffff16021790555060408201518160020160006101000a81548173ffffffffffffffffffffffffffffffffffffffff021916908373ffffffffffffffffffffffffffffffffffffffff16021790555060608201518160020160146101000a81548160ff0219169083600481111561162457611623613059565b5b02179055506080820151816003015560a08201518160040190816116489190613882565b5050507f67299131a74fbf9a478b698dd6389d28f2a6c38727ebdafaedc6b1aeff674f1181600260405161167d929190613c21565b60405180910390a17fa93fd66a907cf7d0b19bf8d29b0e97551ccceaa32a677b0146e15cccb7a1daa381333360026040516116bb9493929190613c51565b60405180910390a150565b60028280516020810182018051848252602083016020850120818352809550505050505081815481106116f857600080fd5b90600052602060002090600502016000915091505080600001805461171c906136a5565b80601f0160208091040260200160405190810160405280929190818152602001828054611748906136a5565b80156117955780601f1061176a57610100808354040283529160200191611795565b820191906000526020600020905b81548152906001019060200180831161177857829003601f168201915b5050505050908060010160009054906101000a900473ffffffffffffffffffffffffffffffffffffffff16908060020160009054906101000a900473ffffffffffffffffffffffffffffffffffffffff16908060020160149054906101000a900460ff169080600301549080600401805461180f906136a5565b80601f016020809104026020016040519081016040528092919081815260200182805461183b906136a5565b80156118885780601f1061185d57610100808354040283529160200191611888565b820191906000526020600020905b81548152906001019060200180831161186b57829003601f168201915b5050505050905086565b60606001826040516118a491906135f3565b908152602001604051809103902060040160159054906101000a900460ff16611902576040517f08c379a00000000000000000000000000000000000000000000000000000000081526004016118f9906139e5565b60405180910390fd5b60028260405161191291906135f3565b9081526020016040518091039020805480602002602001604051908101604052809291908181526020016000905b82821015611b8757838290600052602060002090600502016040518060c0016040529081600082018054611973906136a5565b80601f016020809104026020016040519081016040528092919081815260200182805461199f906136a5565b80156119ec5780601f106119c1576101008083540402835291602001916119ec565b820191906000526020600020905b8154815290600101906020018083116119cf57829003601f168201915b505050505081526020016001820160009054906101000a900473ffffffffffffffffffffffffffffffffffffffff1673ffffffffffffffffffffffffffffffffffffffff1673ffffffffffffffffffffffffffffffffffffffff1681526020016002820160009054906101000a900473ffffffffffffffffffffffffffffffffffffffff1673ffffffffffffffffffffffffffffffffffffffff1673ffffffffffffffffffffffffffffffffffffffff1681526020016002820160149054906101000a900460ff166004811115611ac657611ac5613059565b5b6004811115611ad857611ad7613059565b5b815260200160038201548152602001600482018054611af6906136a5565b80601f0160208091040260200160405190810160405280929190818152602001828054611b22906136a5565b8015611b6f5780601f10611b4457610100808354040283529160200191611b6f565b820191906000526020600020905b815481529060010190602001808311611b5257829003601f168201915b50505050508152505081526020019060010190611940565b505050509050919050565b600181805160208101820180518482526020830160208501208183528095505050505050600091509050806000018054611bcb906136a5565b80601f0160208091040260200160405190810160405280929190818152602001828054611bf7906136a5565b8015611c445780601f10611c1957610100808354040283529160200191611c44565b820191906000526020600020905b815481529060010190602001808311611c2757829003601f168201915b505050505090806001018054611c59906136a5565b80601f0160208091040260200160405190810160405280929190818152602001828054611c85906136a5565b8015611cd25780601f10611ca757610100808354040283529160200191611cd2565b820191906000526020600020905b815481529060010190602001808311611cb557829003601f168201915b5050505050908060020154908060030154908060040160009054906101000a900473ffffffffffffffffffffffffffffffffffffffff16908060040160149054906101000a900460ff16908060040160159054906101000a900460ff1690806005015490806006015490806007018054611d4b906136a5565b80601f0160208091040260200160405190810160405280929190818152602001828054611d77906136a5565b8015611dc45780601f10611d9957610100808354040283529160200191611dc4565b820191906000526020600020905b815481529060010190602001808311611da757829003601f168201915b505050505090508a565b60046020528060005260406000206000915054906101000a900460ff1681565b6001600560008373ffffffffffffffffffffffffffffffffffffffff1673ffffffffffffffffffffffffffffffffffffffff16815260200190815260200160002060006101000a81548160ff0219169083151502179055507f571925c699f9072cec76b6c6c000571cc8d0bb5c47e5819202e2e9496c6508b581604051611e759190613df1565b60405180910390a150565b600081805160208101820180518482526020830160208501208183528095505050505050600091509050806000018054611eb9906136a5565b80601f0160208091040260200160405190810160405280929190818152602001828054611ee5906136a5565b8015611f325780601f10611f0757610100808354040283529160200191611f32565b820191906000526020600020905b815481529060010190602001808311611f1557829003601f168201915b505050505090806001018054611f47906136a5565b80601f0160208091040260200160405190810160405280929190818152602001828054611f73906136a5565b8015611fc05780601f10611f9557610100808354040283529160200191611fc0565b820191906000526020600020905b815481529060010190602001808311611fa357829003601f168201915b5050505050908060020160009054906101000a900473ffffffffffffffffffffffffffffffffffffffff1690806003018054611ffb906136a5565b80601f0160208091040260200160405190810160405280929190818152602001828054612027906136a5565b80156120745780601f1061204957610100808354040283529160200191612074565b820191906000526020600020905b81548152906001019060200180831161205757829003601f168201915b5050505050908060040160009054906101000a900460ff16908060050154908060060154905087565b6001600460008373ffffffffffffffffffffffffffffffffffffffff1673ffffffffffffffffffffffffffffffffffffffff16815260200190815260200160002060006101000a81548160ff0219169083151502179055507f571925c699f9072cec76b6c6c000571cc8d0bb5c47e5819202e2e9496c6508b5816040516121249190613e6b565b60405180910390a150565b600660003373ffffffffffffffffffffffffffffffffffffffff1673ffffffffffffffffffffffffffffffffffffffff16815260200190815260200160002060009054906101000a900460ff166121bb576040517f08c379a00000000000000000000000000000000000000000000000000000000081526004016121b290613ce9565b60405180910390fd5b6001816040516121cb91906135f3565b908152602001604051809103902060040160159054906101000a900460ff16612229576040517f08c379a0000000000000000000000000000000000000000000000000000000008152600401612220906139e5565b60405180910390fd5b6002600581111561223d5761223c613059565b5b60018260405161224d91906135f3565b908152602001604051809103902060040160149054906101000a900460ff16600581111561227e5761227d613059565b5b146122be576040517f08c379a00000000000000000000000000000000000000000000000000000000081526004016122b590613c01565b60405180910390fd5b60036001826040516122d091906135f3565b908152602001604051809103902060040160146101000a81548160ff0219169083600581111561230357612302613059565b5b02179055504260018260405161231991906135f3565b90815260200160405180910390206006018190555060028160405161233e91906135f3565b90815260200160405180910390206040518060c001604052808381526020013373ffffffffffffffffffffffffffffffffffffffff1681526020013373ffffffffffffffffffffffffffffffffffffffff168152602001600360048111156123a9576123a8613059565b5b815260200142815260200160405180602001604052806000815250815250908060018154018082558091505060019003906000526020600020906005020160009091909190915060008201518160000190816124059190613882565b5060208201518160010160006101000a81548173ffffffffffffffffffffffffffffffffffffffff021916908373ffffffffffffffffffffffffffffffffffffffff16021790555060408201518160020160006101000a81548173ffffffffffffffffffffffffffffffffffffffff021916908373ffffffffffffffffffffffffffffffffffffffff16021790555060608201518160020160146101000a81548160ff021916908360048111156124bf576124be613059565b5b02179055506080820151816003015560a08201518160040190816124e39190613882565b5050507ffa537f651edec0ab2c36e041c6505fea31b026a798d5ebf927f9b18ae7d9a49c8133604051612517929190613d75565b60405180910390a17f67299131a74fbf9a478b698dd6389d28f2a6c38727ebdafaedc6b1aeff674f11816003604051612551929190613c21565b60405180910390a17fa93fd66a907cf7d0b19bf8d29b0e97551ccceaa32a677b0146e15cccb7a1daa3813333600360405161258f9493929190613c51565b60405180910390a150565b6001600660008373ffffffffffffffffffffffffffffffffffffffff1673ffffffffffffffffffffffffffffffffffffffff16815260200190815260200160002060006101000a81548160ff0219169083151502179055507f571925c699f9072cec76b6c6c000571cc8d0bb5c47e5819202e2e9496c6508b5816040516126219190613ee5565b60405180910390a150565b600060018260405161263e91906135f3565b908152602001604051809103902060040160159054906101000a900460ff1661269c576040517f08c379a0000000000000000000000000000000000000000000000000000000008152600401612693906139e5565b60405180910390fd5b6001826040516126ac91906135f3565b908152602001604051809103902060040160149054906101000a900460ff169050919050565b600560003373ffffffffffffffffffffffffffffffffffffffff1673ffffffffffffffffffffffffffffffffffffffff16815260200190815260200160002060009054906101000a900460ff1661275e576040517f08c379a000000000000000000000000000000000000000000000000000000000815260040161275590613f5f565b60405180910390fd5b60018160405161276e91906135f3565b908152602001604051809103902060040160159054906101000a900460ff166127cc576040517f08c379a00000000000000000000000000000000000000000000000000000000081526004016127c3906139e5565b60405180910390fd5b600360058111156127e0576127df613059565b5b6001826040516127f091906135f3565b908152602001604051809103902060040160149054906101000a900460ff16600581111561282157612820613059565b5b14612861576040517f08c379a000000000000000000000000000000000000000000000000000000000815260040161285890613c01565b60405180910390fd5b600460018260405161287391906135f3565b908152602001604051809103902060040160146101000a81548160ff021916908360058111156128a6576128a5613059565b5b0217905550426001826040516128bc91906135f3565b9081526020016040518091039020600601819055506002816040516128e191906135f3565b90815260200160405180910390206040518060c001604052808381526020013373ffffffffffffffffffffffffffffffffffffffff1681526020013373ffffffffffffffffffffffffffffffffffffffff16815260200160048081111561294b5761294a613059565b5b815260200142815260200160405180602001604052806000815250815250908060018154018082558091505060019003906000526020600020906005020160009091909190915060008201518160000190816129a79190613882565b5060208201518160010160006101000a81548173ffffffffffffffffffffffffffffffffffffffff021916908373ffffffffffffffffffffffffffffffffffffffff16021790555060408201518160020160006101000a81548173ffffffffffffffffffffffffffffffffffffffff021916908373ffffffffffffffffffffffffffffffffffffffff16021790555060608201518160020160146101000a81548160ff02191690836004811115612a6157612a60613059565b5b02179055506080820151816003015560a0820151816004019081612a859190613882565b5050507f67299131a74fbf9a478b698dd6389d28f2a6c38727ebdafaedc6b1aeff674f11816004604051612aba929190613c21565b60405180910390a17fa93fd66a907cf7d0b19bf8d29b0e97551ccceaa32a677b0146e15cccb7a1daa38133336004604051612af89493929190613c51565b60405180910390a150565b6000604051905090565b600080fd5b600080fd5b600073ffffffffffffffffffffffffffffffffffffffff82169050919050565b6000612b4282612b17565b9050919050565b612b5281612b37565b8114612b5d57600080fd5b50565b600081359050612b6f81612b49565b92915050565b600060208284031215612b8b57612b8a612b0d565b5b6000612b9984828501612b60565b91505092915050565b60008115159050919050565b612bb781612ba2565b82525050565b6000602082019050612bd26000830184612bae565b92915050565b600080fd5b600080fd5b6000601f19601f8301169050919050565b7f4e487b7100000000000000000000000000000000000000000000000000000000600052604160045260246000fd5b612c2b82612be2565b810181811067ffffffffffffffff82111715612c4a57612c49612bf3565b5b80604052505050565b6000612c5d612b03565b9050612c698282612c22565b919050565b600067ffffffffffffffff821115612c8957612c88612bf3565b5b612c9282612be2565b9050602081019050919050565b82818337600083830152505050565b6000612cc1612cbc84612c6e565b612c53565b905082815260208101848484011115612cdd57612cdc612bdd565b5b612ce8848285612c9f565b509392505050565b600082601f830112612d0557612d04612bd8565b5b8135612d15848260208601612cae565b91505092915050565b600080600060608486031215612d3757612d36612b0d565b5b600084013567ffffffffffffffff811115612d5557612d54612b12565b5b612d6186828701612cf0565b935050602084013567ffffffffffffffff811115612d8257612d81612b12565b5b612d8e86828701612cf0565b925050604084013567ffffffffffffffff811115612daf57612dae612b12565b5b612dbb86828701612cf0565b9150509250925092565b600060208284031215612ddb57612dda612b0d565b5b600082013567ffffffffffffffff811115612df957612df8612b12565b5b612e0584828501612cf0565b91505092915050565b6000819050919050565b612e2181612e0e565b8114612e2c57600080fd5b50565b600081359050612e3e81612e18565b92915050565b600080600080600060a08688031215612e6057612e5f612b0d565b5b600086013567ffffffffffffffff811115612e7e57612e7d612b12565b5b612e8a88828901612cf0565b955050602086013567ffffffffffffffff811115612eab57612eaa612b12565b5b612eb788828901612cf0565b9450506040612ec888828901612e2f565b9350506060612ed988828901612e2f565b925050608086013567ffffffffffffffff811115612efa57612ef9612b12565b5b612f0688828901612cf0565b9150509295509295909350565b60008060408385031215612f2a57612f29612b0d565b5b600083013567ffffffffffffffff811115612f4857612f47612b12565b5b612f5485828601612cf0565b9250506020612f6585828601612b60565b9150509250929050565b60008060408385031215612f8657612f85612b0d565b5b600083013567ffffffffffffffff811115612fa457612fa3612b12565b5b612fb085828601612cf0565b9250506020612fc185828601612e2f565b9150509250929050565b600081519050919050565b600082825260208201905092915050565b60005b83811015613005578082015181840152602081019050612fea565b60008484015250505050565b600061301c82612fcb565b6130268185612fd6565b9350613036818560208601612fe7565b61303f81612be2565b840191505092915050565b61305381612b37565b82525050565b7f4e487b7100000000000000000000000000000000000000000000000000000000600052602160045260246000fd5b6005811061309957613098613059565b5b50565b60008190506130aa82613088565b919050565b60006130ba8261309c565b9050919050565b6130ca816130af565b82525050565b6130d981612e0e565b82525050565b600060c08201905081810360008301526130f98189613011565b9050613108602083018861304a565b613115604083018761304a565b61312260608301866130c1565b61312f60808301856130d0565b81810360a08301526131418184613011565b9050979650505050505050565b600081519050919050565b600082825260208201905092915050565b6000819050602082019050919050565b600082825260208201905092915050565b600061319682612fcb565b6131a0818561317a565b93506131b0818560208601612fe7565b6131b981612be2565b840191505092915050565b6131cd81612b37565b82525050565b6131dc816130af565b82525050565b6131eb81612e0e565b82525050565b600060c083016000830151848203600086015261320e828261318b565b915050602083015161322360208601826131c4565b50604083015161323660408601826131c4565b50606083015161324960608601826131d3565b50608083015161325c60808601826131e2565b5060a083015184820360a0860152613274828261318b565b9150508091505092915050565b600061328d83836131f1565b905092915050565b6000602082019050919050565b60006132ad8261314e565b6132b78185613159565b9350836020820285016132c98561316a565b8060005b8581101561330557848403895281516132e68582613281565b94506132f183613295565b925060208a019950506001810190506132cd565b50829750879550505050505092915050565b6000602082019050818103600083015261333181846132a2565b905092915050565b6006811061334a57613349613059565b5b50565b600081905061335b82613339565b919050565b600061336b8261334d565b9050919050565b61337b81613360565b82525050565b600061014082019050818103600083015261339c818d613011565b905081810360208301526133b0818c613011565b90506133bf604083018b6130d0565b6133cc606083018a6130d0565b6133d9608083018961304a565b6133e660a0830188613372565b6133f360c0830187612bae565b61340060e08301866130d0565b61340e6101008301856130d0565b8181036101208301526134218184613011565b90509b9a5050505050505050505050565b600060e082019050818103600083015261344c818a613011565b905081810360208301526134608189613011565b905061346f604083018861304a565b81810360608301526134818187613011565b90506134906080830186612bae565b61349d60a08301856130d0565b6134aa60c08301846130d0565b98975050505050505050565b60006020820190506134cb6000830184613372565b92915050565b7f4d414e5546414354555245520000000000000000000000000000000000000000600082015250565b6000613507600c83612fd6565b9150613512826134d1565b602082019050919050565b6000604082019050613532600083018461304a565b8181036020830152613543816134fa565b905092915050565b7f4e6f7420616e20617574686f72697a6564206d616e7566616374757265720000600082015250565b6000613581601e83612fd6565b915061358c8261354b565b602082019050919050565b600060208201905081810360008301526135b081613574565b9050919050565b600081905092915050565b60006135cd82612fcb565b6135d781856135b7565b93506135e7818560208601612fe7565b80840191505092915050565b60006135ff82846135c2565b915081905092915050565b7f4472756720616c72656164792072656769737465726564000000000000000000600082015250565b6000613640601783612fd6565b915061364b8261360a565b602082019050919050565b6000602082019050818103600083015261366f81613633565b9050919050565b7f4e487b7100000000000000000000000000000000000000000000000000000000600052602260045260246000fd5b600060028204905060018216806136bd57607f821691505b6020821081036136d0576136cf613676565b5b50919050565b60008190508160005260206000209050919050565b60006020601f8301049050919050565b600082821b905092915050565b6000600883026137387fffffffffffffffffffffffffffffffffffffffffffffffffffffffffffffffff826136fb565b61374286836136fb565b95508019841693508086168417925050509392505050565b6000819050919050565b600061377f61377a61377584612e0e565b61375a565b612e0e565b9050919050565b6000819050919050565b61379983613764565b6137ad6137a582613786565b848454613708565b825550505050565b600090565b6137c26137b5565b6137cd818484613790565b505050565b5b818110156137f1576137e66000826137ba565b6001810190506137d3565b5050565b601f82111561383657613807816136d6565b613810846136eb565b8101602085101561381f578190505b61383361382b856136eb565b8301826137d2565b50505b505050565b600082821c905092915050565b60006138596000198460080261383b565b1980831691505092915050565b60006138728383613848565b9150826002028217905092915050565b61388b82612fcb565b67ffffffffffffffff8111156138a4576138a3612bf3565b5b6138ae82546136a5565b6138b98282856137f5565b600060209050601f8311600181146138ec57600084156138da578287015190505b6138e48582613866565b86555061394c565b601f1984166138fa866136d6565b60005b82811015613922578489015182556001820191506020850194506020810190506138fd565b8683101561393f578489015161393b601f891682613848565b8355505b6001600288020188555050505b505050505050565b6000606082019050818103600083015261396e8186613011565b905081810360208301526139828185613011565b9050613991604083018461304a565b949350505050565b7f426174636820646f6573206e6f74206578697374000000000000000000000000600082015250565b60006139cf601483612fd6565b91506139da82613999565b602082019050919050565b600060208201905081810360008301526139fe816139c2565b9050919050565b7f4472756720646f6573206e6f7420657869737400000000000000000000000000600082015250565b6000613a3b601383612fd6565b9150613a4682613a05565b602082019050919050565b60006020820190508181036000830152613a6a81613a2e565b9050919050565b7f4e6f7420746865206d616e756661637475726572000000000000000000000000600082015250565b6000613aa7601483612fd6565b9150613ab282613a71565b602082019050919050565b60006020820190508181036000830152613ad681613a9a565b9050919050565b7f426174636820616c726561647920726567697374657265640000000000000000600082015250565b6000613b13601883612fd6565b9150613b1e82613add565b602082019050919050565b60006020820190508181036000830152613b4281613b06565b9050919050565b7f4e6f7420616e20617574686f72697a6564206469737472696275746f72000000600082015250565b6000613b7f601d83612fd6565b9150613b8a82613b49565b602082019050919050565b60006020820190508181036000830152613bae81613b72565b9050919050565b7f496e76616c696420626174636820737461747573000000000000000000000000600082015250565b6000613beb601483612fd6565b9150613bf682613bb5565b602082019050919050565b60006020820190508181036000830152613c1a81613bde565b9050919050565b60006040820190508181036000830152613c3b8185613011565b9050613c4a6020830184613372565b9392505050565b60006080820190508181036000830152613c6b8187613011565b9050613c7a602083018661304a565b613c87604083018561304a565b613c9460608301846130c1565b95945050505050565b7f4e6f7420616e20617574686f72697a656420726567756c61746f720000000000600082015250565b6000613cd3601b83612fd6565b9150613cde82613c9d565b602082019050919050565b60006020820190508181036000830152613d0281613cc6565b9050919050565b7f426174636820616c726561647920726563616c6c656400000000000000000000600082015250565b6000613d3f601683612fd6565b9150613d4a82613d09565b602082019050919050565b60006020820190508181036000830152613d6e81613d32565b9050919050565b60006040820190508181036000830152613d8f8185613011565b9050613d9e602083018461304a565b9392505050565b7f504841524d414359000000000000000000000000000000000000000000000000600082015250565b6000613ddb600883612fd6565b9150613de682613da5565b602082019050919050565b6000604082019050613e06600083018461304a565b8181036020830152613e1781613dce565b905092915050565b7f4449535452494255544f52000000000000000000000000000000000000000000600082015250565b6000613e55600b83612fd6565b9150613e6082613e1f565b602082019050919050565b6000604082019050613e80600083018461304a565b8181036020830152613e9181613e48565b905092915050565b7f524547554c41544f520000000000000000000000000000000000000000000000600082015250565b6000613ecf600983612fd6565b9150613eda82613e99565b602082019050919050565b6000604082019050613efa600083018461304a565b8181036020830152613f0b81613ec2565b905092915050565b7f4e6f7420616e20617574686f72697a656420706861726d616379000000000000600082015250565b6000613f49601a83612fd6565b9150613f5482613f13565b602082019050919050565b60006020820190508181036000830152613f7881613f3c565b905091905056fea26469706673582212202b23f71e258ba3a694ed3ffa53a2d3c4c3968063fd8250f9d6d7dcf1796dc37164736f6c634300081c0033",
  "linkReferences": {},
  "deployedLinkReferences": {}
}